{
  "contractName": "LandContract",
  "abi": [
    {
      "constant": true,
      "inputs": [
        {
          "name": "",
          "type": "uint256"
        }
      ],
      "name": "adopters",
      "outputs": [
        {
          "name": "",
          "type": "address"
        }
      ],
      "payable": false,
      "stateMutability": "view",
      "type": "function"
    },
    {
      "constant": true,
      "inputs": [
        {
          "name": "",
          "type": "uint256"
        }
      ],
      "name": "estates",
      "outputs": [
        {
          "name": "id",
          "type": "uint256"
        },
        {
          "name": "name",
          "type": "string"
        },
        {
          "name": "voteCount",
          "type": "uint256"
        },
        {
          "name": "details",
          "type": "string"
        },
        {
          "name": "owner",
          "type": "address"
        }
      ],
      "payable": false,
      "stateMutability": "view",
      "type": "function"
    },
    {
      "constant": true,
      "inputs": [],
      "name": "landCount",
      "outputs": [
        {
          "name": "",
          "type": "uint256"
        }
      ],
      "payable": false,
      "stateMutability": "view",
      "type": "function"
    },
    {
      "inputs": [],
      "payable": false,
      "stateMutability": "nonpayable",
      "type": "constructor"
    },
    {
      "constant": false,
      "inputs": [],
      "name": "addEstate",
      "outputs": [],
      "payable": false,
      "stateMutability": "nonpayable",
      "type": "function"
    },
    {
      "constant": false,
      "inputs": [],
      "name": "sellEstate",
      "outputs": [],
      "payable": false,
      "stateMutability": "nonpayable",
      "type": "function"
    },
    {
      "constant": false,
      "inputs": [
        {
          "name": "landId",
          "type": "uint256"
        }
      ],
      "name": "setOwner",
      "outputs": [],
      "payable": false,
      "stateMutability": "nonpayable",
      "type": "function"
    },
    {
      "constant": true,
      "inputs": [
        {
          "name": "landId",
          "type": "uint256"
        }
      ],
      "name": "getOwner",
      "outputs": [
        {
          "name": "",
          "type": "uint256"
        }
      ],
      "payable": false,
      "stateMutability": "view",
      "type": "function"
    },
    {
      "constant": false,
      "inputs": [
        {
          "name": "petId",
          "type": "uint256"
        }
      ],
      "name": "adopt",
      "outputs": [
        {
          "name": "",
          "type": "uint256"
        }
      ],
      "payable": false,
      "stateMutability": "nonpayable",
      "type": "function"
    },
    {
      "constant": true,
      "inputs": [],
      "name": "getAdopters",
      "outputs": [
        {
          "name": "",
          "type": "address[16]"
        }
      ],
      "payable": false,
      "stateMutability": "view",
      "type": "function"
    }
  ],
  "bytecode": "0x608060405234801561001057600080fd5b50610898806100206000396000f300608060405260043610610099576000357c0100000000000000000000000000000000000000000000000000000000900463ffffffff168063078257be1461009e5780633de4eb17146100b557806343ae80d314610108578063759325a0146101755780638041494e1461018c5780638588b2c5146101b9578063c41a360a146101fa578063d70f83c21461023b578063d7bce6581461038e575b600080fd5b3480156100aa57600080fd5b506100b36103b9565b005b3480156100c157600080fd5b506100ca6103bb565b6040518082601060200280838360005b838110156100f55780820151818401526020810190506100da565b5050505090500191505060405180910390f35b34801561011457600080fd5b506101336004803603810190808035906020019092919050505061043c565b604051808273ffffffffffffffffffffffffffffffffffffffff1673ffffffffffffffffffffffffffffffffffffffff16815260200191505060405180910390f35b34801561018157600080fd5b5061018a610471565b005b34801561019857600080fd5b506101b760048036038101908080359060200190929190505050610473565b005b3480156101c557600080fd5b506101e460048036038101908080359060200190929190505050610581565b6040518082815260200191505060405180910390f35b34801561020657600080fd5b50610225600480360381019080803590602001909291905050506105f6565b6040518082815260200191505060405180910390f35b34801561024757600080fd5b5061026660048036038101908080359060200190929190505050610617565b6040518086815260200180602001858152602001806020018473ffffffffffffffffffffffffffffffffffffffff1673ffffffffffffffffffffffffffffffffffffffff168152602001838103835287818151815260200191508051906020019080838360005b838110156102e85780820151818401526020810190506102cd565b50505050905090810190601f1680156103155780820380516001836020036101000a031916815260200191505b50838103825285818151815260200191508051906020019080838360005b8381101561034e578082015181840152602081019050610333565b50505050905090810190601f16801561037b5780820380516001836020036101000a031916815260200191505b5097505050505050505060405180910390f35b34801561039a57600080fd5b506103a361079d565b6040518082815260200191505060405180910390f35b565b6103c36107a3565b6002601080602002604051908101604052809291908260108015610432576020028201915b8160009054906101000a900473ffffffffffffffffffffffffffffffffffffffff1673ffffffffffffffffffffffffffffffffffffffff16815260200190600101908083116103e8575b5050505050905090565b60028160108110151561044b57fe5b016000915054906101000a900473ffffffffffffffffffffffffffffffffffffffff1681565b565b60a06040519081016040528060008152602001602060405190810160405280600081525081526020016000815260200160206040519081016040528060008152508152602001600073ffffffffffffffffffffffffffffffffffffffff1681525060008083815260200190815260200160002060008201518160000155602082015181600101908051906020019061050c9291906107c7565b506040820151816002015560608201518160030190805190602001906105339291906107c7565b5060808201518160040160006101000a81548173ffffffffffffffffffffffffffffffffffffffff021916908373ffffffffffffffffffffffffffffffffffffffff16021790555090505050565b60008082101580156105945750600f8211155b151561059f57600080fd5b336002836010811015156105af57fe5b0160006101000a81548173ffffffffffffffffffffffffffffffffffffffff021916908373ffffffffffffffffffffffffffffffffffffffff160217905550819050919050565b60008060008084815260200190815260200160002090506000915050919050565b6000602052806000526040600020600091509050806000015490806001018054600181600116156101000203166002900480601f0160208091040260200160405190810160405280929190818152602001828054600181600116156101000203166002900480156106c95780601f1061069e576101008083540402835291602001916106c9565b820191906000526020600020905b8154815290600101906020018083116106ac57829003601f168201915b505050505090806002015490806003018054600181600116156101000203166002900480601f01602080910402602001604051908101604052809291908181526020018280546001816001161561010002031660029004801561076d5780601f106107425761010080835404028352916020019161076d565b820191906000526020600020905b81548152906001019060200180831161075057829003601f168201915b5050505050908060040160009054906101000a900473ffffffffffffffffffffffffffffffffffffffff16905085565b60015481565b61020060405190810160405280601090602082028038833980820191505090505090565b828054600181600116156101000203166002900490600052602060002090601f016020900481019282601f1061080857805160ff1916838001178555610836565b82800160010185558215610836579182015b8281111561083557825182559160200191906001019061081a565b5b5090506108439190610847565b5090565b61086991905b8082111561086557600081600090555060010161084d565b5090565b905600a165627a7a723058206473daca6c71fc21366149cb6b723ca5c5d2bdfd1232e907d060f5f29224072e0029",
  "source": "pragma solidity ^0.4.17;\r\n\r\ncontract LandContract { \r\n\r\n    mapping(uint => EstateDetail) public estates;\r\n    \r\n    uint public landCount;\r\n    \r\n    struct EstateDetail {        \r\n        uint id;\r\n        string name;\r\n        uint voteCount;\r\n        string details;   \r\n        address owner;     \r\n    }    \r\n    \r\n    function LandContract() public {\r\n\r\n    }\r\n\r\n    function addEstate() public {\r\n\r\n    }\r\n\r\n    function sellEstate() public { \r\n\r\n    }\r\n\r\n    function setOwner(uint landId) public { \r\n        estates[landId] = EstateDetail(0, \"\", 0, \"\", 0);\r\n    }\r\n\r\n    function getOwner(uint landId) public view returns (uint) {\r\n      EstateDetail a = estates[landId];\r\n      return 0;\r\n    }\r\n\r\n    address[16] public adopters;\r\n    // Adopting a pet\r\n    function adopt(uint petId) public returns (uint) {\r\n    \r\n        require(petId >= 0 && petId <= 15);\r\n\r\n        adopters[petId] = msg.sender;\r\n\r\n        return petId;\r\n    }\r\n\r\n    // Retrieving the adopters\r\n    function getAdopters() public view returns (address[16]) {\r\n        return adopters;\r\n    }\r\n}",
  "sourcePath": "D:\\tmp\\ether\\landShop\\contracts\\Adoption.sol",
  "compiler": {
    "name": "solc",
    "version": "0.4.24+commit.e67f0147.Emscripten.clang"
  },
  "schemaVersion": "2.0.1",
  "updatedAt": "2018-07-23T20:48:07.670Z"
}